:1000000029C043C042C041C040C03FC03EC03DC007
:100010003CC03BC03AC039C038C037C036C035C01C
:1000200063C033C033C031C030C0DFC12EC02DC06B
:100030002CC02BC0A6C336C4D1C3D2C3D5C3D6C32C
:10004000E0C3E1C32FC42EC4E0C3E1C32BC42AC460
:1000500012C415C411241FBECFEFD4E0DEBFCDBF44
:1000600014E0A0E0B1E0EAEFF9E002C005900D92E3
:10007000A034B107D9F714E0A0E4B4E001C01D92A8
:10008000AF37B107E1F70FD4B6C4BACF1F920F92C2
:100090000FB60F9211248F939F93EF93FF9380914C
:1000A0004C0490914D04019690934D0480934C0420
:1000B00080914C0490914D048F70907090934D04FA
:1000C00080934C04E0914C04F0914D048091C60063
:1000D000EC59FB4F8083FF91EF919F918F910F908F
:1000E0000FBE0F901F9018951F920F920FB60F9290
:1000F00011242F933F934F935F936F937F938F932D
:100100009F93AF93BF93EF93FF9382EB86BD809154
:1001100051048F5F8093510480915104863010F018
:10012000109251048091510480937C008FEC809355
:100130007A004091560450915704E52F652F209185
:100140005604309157048091740490917504820F85
:10015000931F90935704809356048091400490918C
:1001600041048130910589F18130910538F0823068
:100170009105C1F1039709F040C03BC0503438F4F9
:10018000F0E0E050FE4F8081E82FF0E03EC057FDE8
:100190000AC0EFE7F0E0E51BF109E050FE4F808177
:1001A000E82FF0E02CC0A52FB0E0503C20F4A05880
:1001B000BE4F8C9105C0EFEFF2E0EA1BFB0B808194
:1001C000E82FF0E0E095F0951AC0852F90E05138C7
:1001D00028F0EFEBF0E0E81BF90B13C0FC01E05452
:1001E000F04013C0852F8695E82FF0E0E054F040F2
:1001F00006C0513808F0F6C006C0E0E0F0E0613813
:1002000020F05A9803C0EFE3F0E05A9A1D9B0BC010
:1002100080914E0490E0E89F9001E99F300DF89F97
:10022000300D112408C09F0165E0220F331F6A952D
:10023000E1F72E1B3F0B35952795359527952050D7
:100240003E4F3093890020938800909161041C995F
:1002500002C082E001C080E0892B8093610480911C
:100260006104823019F481E0809358048091610424
:1002700086958093610480915204882319F081E06F
:10028000809358041092520480915B04882341F4B7
:1002900080916104882321F410925804599801C078
:1002A000599A80915804813011F1813038F08230B0
:1002B00009F443C0833009F073C06AC0209162041E
:1002C00030916304609153047091540480E090E095
:1002D00040E050E071D34FE096958795779567950C
:1002E0004A95D1F7709363046093620459C0E0911A
:1002F0006204F091630420914F04309150046FEF39
:100300007FE96E1B7F0B80E090E040E050E054D32B
:100310003FE096958795779567953A95D1F780E276
:100320006130780728F482E08093580460E070E23E
:100330008FEF9FE9861B970B2FC06091620470912D
:100340006304E0917A04F0917B0420917C04309165
:100350007D046E1B7F0B80E090E040E050E02CD3EA
:100360002FE096958795779567952A95D1F79B010C
:1003700040917A0450917B04240F351F309363041D
:1003800020936204672B61F483E08093580408C0D3
:1003900080917A0490917B0490936304809362042B
:1003A000209162043091630485E0369527958A9503
:1003B000E1F78FEF93E0821B930B90938B00809378
:1003C0008A00FF91EF91BF91AF919F918F917F91A3
:1003D0006F915F914F913F912F910F900FBE0F90B2
:1003E0001F901895E0ECFFEF0CCF1F920F920FB605
:1003F0000F9211242F938F939F93AF93BF93EF93FB
:10040000FF9380915104823009F45AC0833030F454
:10041000882371F0813009F09DC047C0843009F411
:1004200075C0843008F45FC0853009F093C080C087
:10043000E0917800F0917900F695E795F695E795CB
:10044000E050FF4F808190E090935D0480935C04C6
:1004500080917800909179008050924088F480914A
:100460005C0490915D04A0E0B0E0DC01992788274E
:1004700021E1B595A795979587952A95D1F710C055
:1004800080915C0490915D04A0E0B0E0DC019927CC
:100490008827EDE0B595A79597958795EA95D1F7CB
:1004A000909375048093740455C080917800909166
:1004B0007900892F992790934104809340044AC082
:1004C000E0917800F0917900F695E795F695E7953B
:1004D000EE0FFF1FE05CFD4F8081918190935004EF
:1004E00080934F0437C0E0917800F0917900F69541
:1004F000E795F695E795EE0FFF1FE05CFD4F8081D5
:10050000918190937D0480937C0424C08091580451
:10051000823001F1809178009091790025E0880F78
:10052000991F2A95E1F790937B0480937A0412C077
:10053000E0917800F0917900F695E795F695E795CA
:10054000EE0FFF1FE05CFD4F80819181909354047A
:1005500080935304FF91EF91BF91AF919F918F9141
:100560002F910F900FBE0F901F90189580914B0404
:10057000883108F488E18851880F80958093B30012
:10058000089520E00BC0E22FF0E0EE5BFB4F90817E
:1005900080917804981709F44CC02F5F8091600413
:1005A000281788F3809160048830B1F420E030E0AF
:1005B000F9012F5F3F4FD901AE5BBB4F8C91EE5BD2
:1005C000FB4F80832730310599F780917804809321
:1005D000490490E020E017C0E0916004F0E08091D1
:1005E0007804EE5BFB4F8083809160048F5F809383
:1005F0006004EFCFE92FF0E0EE5BFB4F808128171E
:1006000008F420819F5F80916004981798F32093ED
:100610004B0480914B04883108F488E18851880F9D
:1006200080958093B30081E080935B0480935204B3
:100630002898089520E030E016C0332349F0E22FD7
:10064000F0E0DF01AE5BBB4F8C91EF5BFB4F808333
:10065000E22FF0E0EE5BFB4F9081809178049817D9
:1006600009F431E02F5F80916004281730F33323C1
:1006700029F080916004815080936004809160042F
:10068000882319F090E020E00DC010925B04289AB6
:100690000895E92FF0E0EE5BFB4F8081281708F406
:1006A00020819F5F80916004981798F320934B04FA
:1006B00080914B04883108F488E18851880F809537
:1006C0008093B3000895289A59985A9880E88093A7
:1006D000550410924E04109260048FE780937704C3
:1006E00080937E0410925B0410925204109258047E
:1006F00010926304109262040895809159048F3F10
:1007000009F4E1DF089580914A04882341F0809143
:100710005904873F11F410924A0480E008958091B3
:100720005904883F00F58091590487FF10C08091DB
:100730005904803F21F481E080934A0405C08091F0
:1007400059048F708093760410925A040AC0E09185
:100750005A04F0E0E170F07080915904E858FB4FC2
:10076000808381E00895C9DF80E0089580915A0474
:10077000E82FF0E0E031F10508F094C0E65EFF4FAD
:1007800009948091590490E0807F9070803B91059E
:10079000F9F0813B91055CF480399105A9F0803A2C
:1007A000910589F18038910509F07CC00BC0803D2E
:1007B000910581F0803E910579F0803C910509F02A
:1007C00071C004C082E058C084E056C088E054C0C4
:1007D0008AE052C08CE050C08EE04EC083E04CC036
:1007E00082E080935A0409C085E046C084E080938B
:1007F0005A0480917904882311F41CDF0895C1DE26
:10080000089587E039C086E037C08BE035C080911D
:1008100078048536C9F0863630F4813059F0843654
:1008200009F040C00EC08937A1F08B37E9F0883756
:10083000C9F51AC0809179048695869580934E04F7
:100840000895809179040DC0809179048093770494
:10085000089580E88093550410924E048FE78093AA
:10086000770480937E0408951092600410925B04D4
:10087000289A599808958FE080935A0408958EE03D
:1008800080935A049091790480917804990F82950D
:10089000869586958370982B909355048091550486
:1008A0008093B40008958FE084B917B88EE08AB9B8
:1008B0000ADF10927A0010927B0010927C0083E095
:1008C00080937E0031E0309351041092C100109269
:1008D000C00086E08093C20087E28093C40010923B
:1008E000C5008091C10080698093C10010925F04AF
:1008F00010925E0480915E0490915F0490934D0489
:1009000080934C0414BC84E085BDA89A80916E004D
:10091000816080936E0082EB86BD1092810023EF90
:100920002093800080E092E090938900809388007B
:1009300090938B0080938A0089E0809381001092CD
:10094000B1002093B0008FEF8093B30080E88093D4
:10095000B4003093B100789420914C0430914D0450
:1009600080915E0490915F0428173907A9F3809164
:100970005E0490915F04019690935F0480935E04FF
:1009800080915E0490915F048F70907090935F04EB
:1009900080935E04E0915E04F0915F04EC59FB4F9C
:1009A000808180935904AFDE8823B1F28091760470
:1009B000882391F6DBDED0CF629FD001739FF001D8
:1009C000829FE00DF11D649FE00DF11D929FF00DDF
:1009D000839FF00D749FF00D659FF00D9927729F16
:1009E000B00DE11DF91F639FB00DE11DF91FBD01A1
:0A09F000CF0111240895F894FFCF01
:1009FA0010101011111111131313131414141616C5
:100A0A0016161818181919191B1B1C1C1C1E1E2037
:100A1A00202021212323242426262828292B2B2C75
:100A2A002C2E303031333334363838393B3C3C3E67
:100A3A00404143444648494B4C4E505153545659F1
:100A4A005B5C5E61636468696C6E717376787B7EE9
:100A5A00818386898C909396999CA0A3A8ABAEB308
:100A6A00B6BBBEC3C6CBD0D4D9DEE3E8ECF1F8FC02
:100A7A001010101111121212131314141515151641
:100A8A001617171818191A1A1B1B1C1D1D1E1F1FB3
:100A9A002021212223242425262728292A2A2B2CEF
:100AAA002D2E2F30323334353637383A3B3C3E3FE1
:100ABA00404243454648494B4D4E50525456575969
:100ACA005B5D5F626466686A6D6F727477797C7F5A
:100ADA008284878A8D9094979A9EA1A5A8ACB0B477
:100AEA00B8BCC0C4C8CDD1D6DBDFE4E9EEF4F9FF67
:100AFA00000103040607090A0C0E0F111214151738
:100B0A0018191B1C1E1F20222324262728292A2CB9
:100B1A002D2E2F3031323334353636373839393A8B
:100B2A003B3B3C3C3D3D3E3E3E3F3F3F3F3F3F3FE0
:100B3A00162F162F162F162F162F00400040004092
:100B4A00A24DA24DB75BB75BAF63CC68596CF56E2B
:100B5A00F5708A72D173E074C4758576BE773E7873
:100B6A0015796F790C7A4F7AC67A2B7B827BCD7B8B
:100B7A000F7C4A7C7E7CAC7CD67CFD7C2F7D4E7DB6
:100B8A00777D8F7DB17DC67DE27DFB7D137E287EDC
:100B9A003C7E4D7E5E7E6D7E7C7E897E997EA57EC4
:100BAA00B37EBD7EC97ED17EDC7EE67EF07EF87E97
:100BBA00007F087F0F7F167F1D7F237F2A7F2F7F6D
:100BCA00367F3B7F407F457F4A7F4F7F537F587FE9
:100BDA005C7F607F647F677F6B7F6E7F727F757FCC
:100BEA00787F7B7F7E7F817F847F867F897F8C7FF2
:100BFA008E7F907F927F957F977F997F9B7F9D7F46
:100C0A009F7FA07FA27FA47FA67FA77FA97FAA7FBD
:100C1A00AC7FAD7FAF7FB07FB27FB37FB47FB57F4C
:100C2A00B77FB87FB97FBA7FBB7FBC7FBE7FBF7FEC
:100C3A00C07FC17FC17FC27FC37FC47FC57FC67F9C
:100C4A00C77FC87FC87FC97FCA7FCB7FCC7FCC7F55
:100C5A00CD7FCE7FCE7FCF7FD07FD07FD17FD27F17
:100C6A00D27FD37FD37FD47FD47FD57FD67FD67FE1
:100C7A00D77FD77FD87FD87FD97FD97FD97FDA7FAF
:100C8A00DA7FDB7FDB7FDC7FDC7FDC7FDD7FDD7F84
:100C9A00DE7FDE7FDE7FDF7FDF7FDF7FE07FE07F5B
:100CAA00E17FE17FE17FE27FE27FE27FE27FE37F34
:100CBA00E37FE37FE47FE47FE47FE47FE57FE57F12
:100CCA00E57FE67FE67FE67FE67FE77FE77FE77FF0
:100CDA00E77FE87FE87FE87FE87FE87FE97FE97FD1
:100CEA00E97FE97FE97FEA7FEA7FEA7FEA7FEA7FB5
:100CFA00EB7FEB7FEB7FEB7FEB7FEC7FEC7FEC7F97
:100D0A00EC7FEC7FEC7FED7FED7FED7FED7FED7F7C
:100D1A00ED7FED7FEE7FEE7FEE7FEE7FEE7FEE7F63
:100D2A00EE7FEF7FEF7FEF7FEF7FEF7FEF7FEF7F4A
:00000001FF
